:020000040800F2
:1000000000000220E91A0008CD190008D3190008E1
:10001000D9190008DF190008E519000800000000E0
:10002000000000000000000000000000C101010805
:10003000EB19000800000000110401087904010810
:10004000391B0008391B0008391B0008391B000840
:10005000391B0008391B0008391B0008391B000830
:10006000391B0008391B0008391B0008391B000820
:10007000391B0008391B0008391B0008391B000810
:10008000391B0008391B0008391B0008391B000800
:10009000391B0008391B0008391B0008391B0008F0
:1000A000391B0008F9190008391B0008391B000822
:1000B000391B0008391B0008391B0008391B0008D0
:1000C000391B0008391B0008391B0008391B0008C0
:1000D000391B0008391B0008391B00080D1A0008DD
:1000E000211A0008391B0008391B0008391B0008B9
:1000F000391B0008391B0008391B0008391B000890
:10010000391B0008391B0008391B0008391B00087F
:10011000391B0008391B0008391B0008391B00086F
:10012000391B0008391B0008391B0008391B00085F
:10013000391B00080000000000000000391B000807
:10014000391B0008391B0008391B0008311A000848
:10015000391B0008391B0008391B0008391B00082F
:10016000391B0008391B0008391B0008391B00081F
:10017000391B0008451A0008391B00080000000060
:1001800000000000391B0008000000000000000013
:10019000391B00080000000000000000391B0008A7
:1001A000000000000000000000000000391B0008F3
:1001B000391B0008391B0008391B0008391B0008CF
:0401C000391B0008DF
:1001D00010B5054C237833B9044B13B10448AFF381
:1001E00000800123237010BDB0010020000000003A
:1001F000981B010808B5034B1BB103490348AFF333
:10020000008008BD00000000B4010020981B010818
:1002100053B94AB9002908BF00281CBF4FF0FF316D
:100220004FF0FF3000F074B9ADF1080C6DE904CE69
:1002300000F006F8DDF804E0DDE9022304B07047C1
:100240002DE9F047089D04468E46002B4DD18A4289
:10025000944669D9B2FA82F252B101FA02F3C2F1BC
:10026000200120FA01F10CFA02FC41EA030E94404D
:100270004FEA1C48210CBEFBF8F61FFA8CF708FB6E
:1002800016E341EA034306FB07F199420AD91CEB46
:10029000030306F1FF3080F01F81994240F21C8178
:1002A000023E63445B1AA4B2B3FBF8F008FB1033C0
:1002B00044EA034400FB07F7A7420AD91CEB0404F5
:1002C00000F1FF3380F00A81A74240F207816444C5
:1002D000023840EA0640E41B00261DB1D44000234A
:1002E000C5E900433146BDE8F0878B4209D9002DAE
:1002F00000F0EF800026C5E9000130463146BDE838
:10030000F087B3FA83F6002E4AD18B4202D38242A1
:1003100000F2F980841A61EB030301209E46002D50
:10032000E0D0C5E9004EDDE702B9FFDEB2FA82F2A5
:10033000002A40F09280A1EB0C014FEA1C471FFA03
:100340008CFE0126200CB1FBF7F307FB131140EAEA
:1003500001410EFB03F0884208D91CEB010103F1B7
:10036000FF3802D2884200F2CB804346091AA4B279
:10037000B1FBF7F007FB101144EA01440EFB00FE4D
:10038000A64508D91CEB040400F1FF3102D2A645B2
:1003900000F2BB800846A4EB0E0440EA03409CE751
:1003A000C6F12007B34022FA07FC4CEA030C20FAFE
:1003B00007F401FA06F31C43F9404FEA1C4900FA1E
:1003C00006F3B1FBF9F8200C1FFA8CFE09FB18119B
:1003D00040EA014108FB0EF0884202FA06F20BD90E
:1003E0001CEB010108F1FF3A80F08880884240F25E
:1003F0008580A8F102086144091AA4B2B1FBF9F0A2
:1004000009FB101144EA014100FB0EFE8E4508D99C
:100410001CEB010100F1FF346CD28E456AD9023821
:10042000614440EA0840A0FB0294A1EB0E01A14206
:10043000C846A64656D353D05DB1B3EB080261EB74
:100440000E0101FA07F722FA06F3F1401F43C5E94E
:10045000007100263146BDE8F087C2F12003D84084
:100460000CFA02FC21FA03F3914001434FEA1C47C6
:100470001FFA8CFEB3FBF7F007FB10360B0C43EAB8
:10048000064300FB0EF69E4204FA02F408D91CEB68
:10049000030300F1FF382FD29E422DD90238634466
:1004A0009B1B89B2B3FBF7F607FB163341EA034106
:1004B00006FB0EF38B4208D91CEB010106F1FF3855
:1004C00016D28B4214D9023E6144C91A46EA00464C
:1004D00038E72E46284605E70646E3E61846F8E6DE
:1004E0004B45A9D2B9EB020864EB0C0E0138A3E727
:1004F0004646EAE7204694E74046D1E7D0467BE708
:10050000023B614432E7304609E76444023842E77F
:10051000704700BF80B582B000AF0346FB800B463A
:10052000BB8013467B80FB88B9887A88184600F028
:10053000E3FB00BF0837BD4680BD90B585B002AF74
:100540000446084611461A462346FB800346BB80F4
:100550000B467B8013463B80F888B9887A883C88B4
:100560003B8B0093234600F0D1FC00BF0C37BD4607
:1005700090BD80B582B000AF0346FB800B46BB80C8
:1005800013467B807A88B7F90410B7F9063018460D
:10059000FFF7C0FF00BF0837BD4680BD90B589B0EA
:1005A00000AF0446084611461A462346FB80034620
:1005B000BB800B467B8013463B80B7F90020B7F920
:1005C0000430D31A83EAE372A2EBE372B7F90210A4
:1005D000B7F90630CB1A002BB8BF5B429A42CCBFAA
:1005E00001230023DBB27B83B7F91A30002B0BD039
:1005F000FB883B83BB88FB803B8BBB807B88FB827B
:100600003B887B80FB8A3B80B7F90620B7F9023034
:100610009A420BDDFB88BB827B88FB80BB8A7B8098
:10062000BB887B823B88BB807B8A3B807A88FB8847
:10063000D31A9BB23B82B7F90020B7F90430D31A22
:10064000002BB8BF5B42FB81B7F91030DA0F1344BF
:100650005B10FB83B7F90420B7F900309A4202DA45
:100660000123BB8331E04FF6FF73BB832DE0B7F965
:100670001A30002B08D03A8EB7F90610B7F90430BB
:100680001846FFF776FF07E03A8EB7F90410B7F97E
:1006900006301846FFF76DFFFA8BFB89D31A9BB221
:1006A000FB83B7F91E30002B09DABA88BB8B1344E1
:1006B0009BB2BB80FA8B3B8A13449BB2FB83B7F996
:1006C00006309BB201339BB2FB80B7F90620B7F925
:1006D00002309A42CBDD00BF00BF2437BD4690BD3B
:1006E00090B585B002AF0446084611461A46234627
:1006F000FB800346BB800B467B8013463B80FA8819
:100700007B8813449BB2013B9BB21AB2B7F90440F9
:10071000B7F90410B7F906003B8800932346FFF7AA
:100720003DFF00BF0C37BD4690BD000080B584B0D2
:1007300002AF0346FB80084BB3F90020074BB3F927
:100740000010FB8800930B4600210020FFF7F5FE08
:1007500000BF0837BD4680BDD4010020D60100206F
:1007600080B584B000AF0346FB71FB79602B0BD9D9
:10077000FB797A2B08D8814B00221A70FB795D3BFC
:10078000DAB27E4B9A70D1E0FB79402B0ED9FB791F
:100790005A2B0BD8794B02221A70FB792033FB714C
:1007A000FB795D3BDAB2754B9A70BFE0FB790A3B8F
:1007B000352B00F2B88001A252F823F0A5080008FA
:1007C0002709000827090008270900082709000849
:1007D0002709000827090008270900082709000839
:1007E0002709000827090008270900082709000829
:1007F0002709000827090008270900082709000819
:100800002709000827090008270900082709000808
:100810002709000895080008AD0800082709000806
:1008200027090008270900082709000827090008E8
:1008300027090008270900082709000827090008D8
:100840002709000827090008270900089D08000853
:10085000270900081F090008D7080008DF0800085A
:10086000E7080008EF080008F7080008FF0800087C
:10087000070900080F0900081709000827090008E0
:100880002709000827090008C908000827090008E7
:10089000BB080008394B2C229A7047E0374B3722AF
:1008A0009A7043E0354B28229A703FE0334B022286
:1008B0001A70324B1E229A7038E0304B02221A70A6
:1008C0002E4B38229A7031E02C4B00221A702B4BA1
:1008D0002E229A702AE0294B1E229A7026E0274B7E
:1008E0001F229A7022E0254B20229A701EE0234B93
:1008F00021229A701AE0214B22229A7016E01F4B97
:1009000023229A7012E01D4B24229A700EE01B4B9A
:1009100025229A700AE0194B26229A7006E0174B9E
:1009200027229A7002E0154B00229A700822134980
:10093000134809F0ADFC0346FB73FB7B002B01D091
:1009400000F006FF0F2001F03BF90C4B00221A705B
:100950000A4B00229A7008220849094809F098FCBD
:100960000346FB73FB7B002B01D000F0F1FE0F2050
:1009700001F026F900BF1037BD4680BDCC01002034
:10098000D442002080B584B000AF78600023FB73B0
:1009900009E0FB7B7A6813441B781846FFF7E0FEFA
:1009A000FB7B0133FB73FB7B7A6813441B78002BC2
:1009B000EFD100BF00BF1037BD4680BD80B500AF8E
:1009C00000221021024801F027FC00BF80BD00BFBB
:1009D0000000024080B500AF01221021024801F062
:1009E0001BFC00BF80BD00BF0000024080B500AF0F
:1009F00000221021064801F00FFC052001F0E0F86C
:100A000001221021024801F007FC00BF80BD00BF99
:100A10000010024080B582B000AF0346FB71002297
:100A20000421074801F0F8FBF91D4FF0FF330122C4
:100A3000044805F0ACFC00BF0837BD4680BD00BFD0
:100A4000001002404004002080B582B000AF786002
:100A5000396001220421074801F0DEFB3B689AB2AD
:100A60004FF0FF337968044805F091FC00BF083768
:100A7000BD4680BD001002404004002080B584B017
:100A800000AF78607B685A1C7A601B78FB7334E097
:100A90007B685A1C7A601B78FB72FB7A1846FFF75A
:100AA000B9FF7B685A1C7A601B78BB72BB7A9BB219
:100AB00003F08003BB81BB7A03F07F03BB72BB7A78
:100AC000002B08D0BB7A19467868FFF7BDFFBB7AC8
:100AD0007A6813447B60BB89002B0ED07B685A1C5C
:100AE0007A601B78BB81BB89FF2B02D14FF4FA736C
:100AF000BB81BB89184601F063F8FB7B5A1EFA7371
:100B0000002BC5D100BF00BF1037BD4680BD00001F
:100B100090B585B000AF0446084611461A462346F4
:100B2000FB710346BB710B467B7113463B712A2058
:100B3000FFF770FF00233B73174B1A78FB791344C0
:100B4000DBB27B730023BB73134B1A787B7913449E
:100B5000DBB2FB7307F10C0304211846FFF774FFA7
:100B60002B20FFF757FF0D4B1A78BB791344DBB2EC
:100B70007B730A4B1A783B791344DBB2FB7307F1A2
:100B80000C0304211846FFF75FFF2C20FFF742FFFC
:100B900000BF1437BD4690BDDB010020DC01002002
:100BA00080B582B000AF0346FB71FFF707FFFFF788
:100BB0001DFF0C48FFF762FF0B48FFF75FFF0B4874
:100BC000FFF75CFF0A4B00221A700A4B00221A70D2
:100BD000FB79184600F010F8FFF7FCFE00BF08375D
:100BE000BD4680BDBC1C0108F41C0108041D0108A1
:100BF000D9010020DA01002080B584B000AF03469F
:100C0000FB710023FB73FB7903F00303DAB2334B70
:100C10001A70324B1B78032B4ED801A252F823F0E6
:100C2000310C0008530C0008750C0008970C0008E4
:100C3000C023FB732A4BA0221A802A4B80221A80E1
:100C4000294B1A78294B1A70294B1A78294B1A709C
:100C500032E0A023FB73234BA0221A80204B80227A
:100C60001A80214B1A78234B1A70214B1A781F4B8C
:100C70001A7021E00023FB73194BA0221A80194B34
:100C800080221A80184B1A78184B1A70184B1A7851
:100C9000184B1A7010E06023FB73124BA0221A80CD
:100CA0000F4B80221A80104B1A78124B1A70104B7F
:100CB0001A780E4B1A7000BFFFF780FE3620FFF740
:100CC000A9FE07F10F0301211846FFF7BDFEFFF74C
:100CD00081FE00BF1037BD4680BD00BFD801002097
:100CE000D6010020D4010020D9010020DB01002022
:100CF000DA010020DC01002080B584B000AF03469B
:100D0000FB800B46BB8013467B80FB88174AB2F9F9
:100D10000020934226DABB88154AB2F9002093429C
:100D200020DAFFF74BFEFB88D8B2BB88D9B2FB882C
:100D3000DBB20133DAB2BB88DBB20133DBB2FFF7DF
:100D4000E7FE7B881B0A9BB2DBB23B737B88DBB27E
:100D50007B7307F10C0302211846FFF775FEFFF7BE
:100D600039FE00E000BF1037BD4680BDD401002031
:100D7000D601002082B090B589B000AF7B630346F6
:100D8000FB800B46BB801346FB70FB88D8B2BB8848
:100D9000D9B2FB88DAB297F834301344DBB2013BA6
:100DA000DCB2BB88DAB297F835301344DBB2013BD2
:100DB000DBB22246FFF7ACFE0023FB6143E0BA6BD7
:100DC000FB78203B97F8351001FB03F31946FB69CC
:100DD0000B445B0013441B887B610023BB6129E04B
:100DE0007A69BB6902FA03F303F40043002B0ED0C7
:100DF000BB8F1B0A9BB2DBB23B74BB8FDBB27B7435
:100E000007F1100302211846FFF71EFE0FE0B7F8A6
:100E100040301B0A9BB2DBB23B73B7F84030DBB209
:100E20007B7307F10C0302211846FFF70DFEBB6927
:100E30000133BB6197F834301A46BB699342CFD374
:100E4000FB690133FB6197F835301A46FB69934221
:100E5000B5D300BF00BF2437BD46BDE8904002B007
:100E60007047000082B080B586B004AF3A607B6105
:100E70000346FB800B46BB80FFF7A0FD33E0FB88F9
:100E80003A7D13441F4AB2F90020934216DB002337
:100E9000FB807B7D9AB2BB881344BB80BB887A7D84
:100EA0001344194AB2F90020934221DA3B681B78B7
:100EB000202B03D13B6801333B6014E03B681A7878
:100EC000B988F8883B8C0293BB8B0193BB69009374
:100ED0007B69FFF74FFF3B7D9AB2FB881344FB8091
:100EE0003B6801333B603B681B78002BC7D100E0B7
:100EF00000BFFFF76FFD00BF0837BD46BDE880406B
:100F000002B07047D4010020D601002090B585B012
:100F100000AF0446084611461A462346FB800346A6
:100F2000BB800B467B8013463B80FB88374AB2F977
:100F30000020934266DABB88354AB2F9002093421A
:100F400060DAFA887B881344304AB2F90020934271
:100F500006DD2E4BB3F900309AB2FB88D31A7B80A2
:100F6000BA883B8813442A4AB2F90020934206DD2E
:100F7000274BB3F900309AB2BB88D31A3B80FFF7F6
:100F80001DFDFB88D8B2BB88D9B2FB88DAB27B885A
:100F9000DBB21344DBB2013BDCB2BB88DAB23B8884
:100FA000DBB21344DBB2013BDBB22246FFF7B0FDFC
:100FB0003B8C1B0A9BB2DBB23B733B8CDBB27B737B
:100FC00001220421134801F027F93B88BB8013E07C
:100FD0007B88FB800AE007F10C014FF0FF3302220F
:100FE0000D4805F0D4F9FB88013BFB80FB88002B02
:100FF000F1D1BB88013BBB80BB88002BE8D1FFF758
:10100000E9FC00E000BF1437BD4690BDD4010020CC
:10101000D6010020001002404004002080B483B0BC
:1010200000AF0346FB80FB88012B08D1134B002245
:101030001A60134B00221A60124B01221A60FB88BF
:10104000022B08D10D4B01221A600D4B00221A60B1
:101050000C4B00221A60FB88102B08D1074B002292
:101060001A60074B01221A60064B00221A6000BF6B
:101070000C37BD465DF8047B704700BFE0010020DF
:10108000E4010020E801002080B485B000AFF860E2
:10109000B9607A60FB68074A1A60BB68064A1A6042
:1010A0007B6880221A6000BF1437BD465DF8047B60
:1010B000704700BFEC01002040020020B0B58EB0A8
:1010C00000AF00F03BFD00F057F800F023F900F00E
:1010D000F7F800F0BDF80020FFF762FD0020FFF7F1
:1010E00025FB01200DF015FD03461C4A136000226C
:1010F00001210A200DF09AFC0346194A13600022D0
:1011000001210A200DF092FC0346164A1360164B8B
:1011100007F11C041D460FCD0FC495E8070084E8B5
:10112000070007F11C03002118460DF0AEF9034635
:101130000E4A13600E4B3C461D460FCD0FC495E87A
:10114000070084E807003B46002118460DF09DF992
:101150000346084A13600DF091F9FEE7EC04002005
:10116000E4040020E8040020C81B0108DC0400207F
:10117000E41B0108E004002080B594B000AF07F143
:101180001C0334220021184610F000FC07F108036C
:1011900000221A605A609A60DA601A6100237B604C
:1011A000294B1B6C284A43F080531364264B1B6C5D
:1011B00003F080537B607B6800233B60234B1B68FC
:1011C000224A43F440431360204B1B6803F440431E
:1011D0003B603B680123FB614FF4A0233B62022389
:1011E0007B634FF48003BB630423FB63A8233B644E
:1011F00002237B640723BB640223FB6407F11C0307
:10120000184604F09DFD0346002B01D000F0A0FA23
:101210000F23BB600223FB6000233B614FF4A0530C
:101220007B614FF48053BB6107F108030521184629
:1012300003F0E0FE0346002B01D000F089FA00BF66
:101240005037BD4680BD00BF0038024000700040EE
:1012500080B500AF184B194A1A60174B4FF48272D1
:101260005A60154B4FF400429A60134B0022DA602B
:10127000114B00221A61104B00225A610E4B4FF4A1
:1012800000729A610C4B1822DA610B4B00221A6231
:10129000094B00225A62084B00229A62064B0A222E
:1012A000DA62054804F0EAFF0346002B01D000F0A3
:1012B0004FFA00BF80BD00BF400400200030014055
:1012C00080B500AF114B124A1A60104B4FF4E13257
:1012D0005A600E4B00229A600C4B0022DA600B4BD6
:1012E00000221A61094B0C225A61084B00229A61B4
:1012F000064B0022DA61054805F0FEFC0346002B90
:1013000001D000F025FA00BF80BD00BF9804002086
:101310000048004080B58CB000AF07F11C030022EC
:101320001A605A609A60DA601A610023BB616D4BE3
:101330001B6B6C4A43F0100313636A4B1B6B03F087
:101340001003BB61BB6900237B61664B1B6B654A65
:1013500043F004031363634B1B6B03F004037B61D3
:101360007B6900233B615F4B1B6B5E4A43F080034C
:1013700013635C4B1B6B03F080033B613B690023F1
:10138000FB60584B1B6B574A43F001031363554BEB
:101390001B6B03F00103FB60FB680023BB60514B38
:1013A0001B6B504A43F0020313634E4B1B6B03F05D
:1013B0000203BB60BB6800237B604A4B1B6B494A3E
:1013C00043F008031363474B1B6B03F008037B6078
:1013D0007B6800233B60434B1B6B424A43F0400356
:1013E0001363404B1B6B03F040033B603B680022E0
:1013F00014213D4800F010FF002210213B4800F06E
:101400000BFF002240213A4800F006FF00224FF473
:10141000E061384800F000FF00228021364800F0EB
:10142000FBFE1423FB6101233B6200237B6200234C
:10143000BB6207F11C0319462B4800F059FD4FF41D
:101440000053FB614FF488133B6200237B6207F17A
:101450001C031946274800F04BFD1023FB610123B4
:101460003B6200237B620023BB6207F11C03194629
:101470001E4800F03DFD4023FB6101233B62002339
:101480007B620023BB6207F11C031946184800F079
:101490002FFD4FF4E063FB6101233B6200237B627D
:1014A0000023BB6207F11C031946124800F020FD1F
:1014B0008023FB6101233B6200237B620023BB622C
:1014C00007F11C0319460C4800F012FD002205210B
:1014D000282000F051FC282000F06AFC00BF3037C3
:1014E000BD4680BD003802400010024000000240AE
:1014F00000180240000802400004024080B586B097
:1015000000AF78607B68D3F87C33DB697B610023B4
:10151000FB607B691B6B134A93421ED178680AF00B
:101520006FFF386138690BF00FF803461A460E4B0F
:101530001A700D4B1B78002B0FD00C4B186807F15D
:101540000C02002308490DF0FBFB094B186807F15A
:101550000C02002304490DF0F3FB00BF1837BD4611
:1015600080BD00BF59C30008F0040020E80400203B
:10157000E4040020B0B58EB004AF78600FF0A6FE92
:10158000574B07F108041D460FCD0FC495E8030023
:101590002060043421700120FFF72EFB514B07F12E
:1015A0000801002202921F2201925A6800921B68D1
:1015B0000A4601210020FFF755FC1F23A0220B2122
:1015C0000020FFF78DF80D2387F82730002387F8D8
:1015D000263000233B620A200CF0A3FF424B1B681D
:1015E00007F11F014FF0FF3218460DF045FC03468E
:1015F000012BF0D197F82630B42B52D897F827302A
:10160000642B4ED8FB7F0A2B26D0012010F0A0F9C6
:1016100003463B623B6A002B01D100F099F8FA7F48
:101620003B6A1A7097F8263098B297F8273099B22B
:101630002C4B002202921F2201925A6800921B68D2
:101640003A6AFFF70FFC97F82630073387F8263001
:10165000386A10F085F942E0FB7F0A2B08D197F831
:1016600027300A3387F82730002387F8263036E002
:1016700097F8273099B21B4B002202924FF4784220
:1016800001925A6800921B68184A0020FFF7EAFB93
:10169000002387F8263097F827300A3387F8273059
:1016A0001DE0002387F826300D2387F8273000201F
:1016B000FFF73CF80B4B07F10801002202921F22B2
:1016C00001925A6800921B680A4601210020FFF728
:1016D000C9FB1F23A0220B210020FFF701F87AE7A6
:1016E000181C010800000020E8040020001C01086C
:1016F00080B584B000AF78600FF038F901200CF0AD
:1017000010FF094B1B6807F10F014FF0FF3218461D
:101710000DF0B2FB0346012BF0D107F10F03184681
:10172000FFF730F9EAE700BFE404002080B582B09B
:1017300000AF78607B681B68044A934201D100F0D7
:101740001FFA00BF0837BD4680BD00BF00440140FE
:1017500080B400AF72B600BFFEE7000080B582B073
:1017600000AF00237B60124B5B6C114A43F4804353
:1017700053640F4B5B6C03F480437B607B680023F6
:101780003B600B4B1B6C0A4A43F080531364084BBD
:101790001B6C03F080533B603B6800220F216FF00D
:1017A000010000F0E9FA00BF0837BD4680BD00BF68
:1017B0000038024080B58AB000AF786007F11403AA
:1017C00000221A605A609A60DA601A617B681B68AE
:1017D000194A93422BD100233B61184B5B6C174A8B
:1017E00043F480535364154B5B6C03F480533B61AB
:1017F0003B690023FB60114B1B6B104A43F0010354
:1018000013630E4B1B6B03F00103FB60FB68A0230B
:101810007B610223BB610023FB6103233B62052341
:101820007B6207F114031946054800F061FB00BF15
:101830002837BD4680BD00BF00300140003802405F
:101840000000024080B58AB000AF786007F1140351
:1018500000221A605A609A60DA601A617B681B681D
:101860001D4A934234D100233B611C4B1B6C1B4A25
:1018700043F480231364194B1B6C03F480233B61F6
:101880003B690023FB60154B1B6B144A43F00803B4
:101890001363124B1B6B03F00803FB60FB684FF4F0
:1018A00040737B610223BB610023FB6103233B6226
:1018B00007237B6207F114031946094800F018FB5F
:1018C00000220521272000F057FA272000F070FAA7
:1018D00000BF2837BD4680BD0048004000380240A8
:1018E000000C024080B58CB000AF78600023BB6272
:1018F00000237B620023BB602F4B5B6C2E4A43F4BA
:10190000003353642C4B5B6C03F40033BB60BB6847
:1019100007F10C0207F110031146184603F084FC8E
:1019200003F06EFC03465B00BB62BB6A234AA2FB6A
:1019300003239B0C013B7B62214B224A1A60204B04
:1019400040F2E732DA601E4A7B6A53601C4B002289
:101950001A611B4B00229A60194B00229A611848A9
:1019600004F01CFF034687F82F3097F82F30002B28
:101970001BD1134804F06CFF034687F82F3097F80B
:101980002F30002B11D1192000F012FA7B680F2B99
:1019900008D800227968192000F0EEF90A4A7B681D
:1019A000136002E0012387F82F3097F82F30184694
:1019B0003037BD4680BD00BF0038024083DE1B4388
:1019C000F4040020004401400C00002080B400AF6B
:1019D000FEE780B400AFFEE780B400AFFEE780B45E
:1019E00000AFFEE780B400AFFEE780B400AF00BFF9
:1019F000BD465DF8047B704780B500AF024804F037
:101A000097FF00BF80BD00BFF404002080B500AF89
:101A1000024805F0BFF900BF80BD00BF9804002058
:101A200080B500AF4FF4005000F010FC00BF80BD47
:101A300080B500AF024800F08BFE00BF80BD00BF44
:101A4000B850002080B500AF024802F078F900BF1E
:101A500080BD00BFB047002080B586B000AF786081
:101A6000144A154BD31A7B617B693B61134B1B688E
:101A7000002B02D1114B124A1A60104B1A687B6876
:101A800013443A699A4207D20FF038FF03460C22FA
:101A90001A604FF0FF3309E0084B1B68FB60074BEF
:101AA0001A687B681344054A1360FB6818461837A8
:101AB000BD4680BD00000220000400003C0500205F
:101AC000D053002080B400AF064BD3F88830054ACD
:101AD00043F47003C2F8883000BFBD465DF8047B54
:101AE000704700BF00ED00E0DFF834D00D480E492C
:101AF0000E4A002302E0D458C4500433C4188C4268
:101B0000F9D30B4A0B4C002301E013600432A242CC
:101B1000FBD3FFF7D7FF0FF0F7FEFFF7CFFA7047C1
:101B20000000022000000020B0010020D42701089E
:101B3000B0010020CC530020FEE7000080B500AFCC
:101B40000E4B1B680D4A43F4007313600B4B1B686C
:101B50000A4A43F480631360084B1B68074A43F446
:101B600080731360032000F0FCF80F20FFF7BAFE2B
:101B7000FFF7F4FD0023184680BD00BF003C024083
:101B800080B400AF064B1B781A46064B1B68134403
:101B9000044A136000BFBD465DF8047B704700BF78
:101BA000100000204005002080B400AF034B1B68EC
:101BB0001846BD465DF8047B704700BF4005002015
:101BC00080B584B000AF7860FFF7EEFFB8607B6847
:101BD000FB60FB68B3F1FF3F05D00A4B1B781A4648
:101BE000FB681344FB6000BFFFF7DEFF0246BB68E3
:101BF000D31AFA689A42F7D800BF00BF1037BD4623
:101C000080BD00BF1000002080B485B000AF7860B8
:101C10007B6803F00703FB600C4BDB68BB60BA68B2
:101C20004FF6FF031340BB60FB681A02BB68134307
:101C300043F0BF6343F40033BB60044ABB68D36026
:101C400000BF1437BD465DF8047B704700ED00E02F
:101C500080B400AF044BDB681B0A03F0070318468F
:101C6000BD465DF8047B704700ED00E080B483B0B2
:101C700000AF0346FB7197F90730002B0BDBFB79B4
:101C800003F01F02074997F907305B09012000FAAA
:101C900002F241F8232000BF0C37BD465DF8047BFB
:101CA000704700BF00E100E080B483B000AF03469E
:101CB0003960FB7197F90730002B0ADB3B68DAB219
:101CC0000C4997F907301201D2B20B4483F8002374
:101CD0000AE03B68DAB20849FB7903F00F03043BE2
:101CE0001201D2B20B441A7600BF0C37BD465DF824
:101CF000047B704700E100E000ED00E080B489B0B3
:101D000000AFF860B9607A60FB6803F00703FB611D
:101D1000FB69C3F10703042B28BF0423BB61FB69E4
:101D20000433062B02D9FB69033B00E000237B61EF
:101D30004FF0FF32BB6902FA03F3DA43BB681A4083
:101D40007B699A404FF0FF317B6901FA03F3D94375
:101D50007B680B40134318462437BD465DF8047B6F
:101D6000704780B582B000AF78607868FFF74CFFAD
:101D700000BF0837BD4680BD80B586B000AF0346C2
:101D8000B9607A60FB7300237B61FFF761FF7861C4
:101D90007A68B9687869FFF7B1FF024697F90F30A2
:101DA00011461846FFF780FF00BF1837BD4680BDBB
:101DB00080B582B000AF0346FB7197F90730184633
:101DC000FFF754FF00BF0837BD4680BD80B584B023
:101DD00000AF78607B689B6DFB60FFF7E5FEB86045
:101DE0007B6893F83530DBB2022B08D07B68802209
:101DF0005A657B68002283F83420012352E07B6817
:101E00001B681A687B681B6822F016021A607B68E0
:101E10001B685A697B681B6822F080025A617B68E4
:101E20001B6C002B03D17B689B6C002B07D07B685D
:101E30001B681A687B681B6822F008021A607B68BE
:101E40001B681A687B681B6822F001021A6013E0A5
:101E5000FFF7AAFE0246BB68D31A052B0CD97B6894
:101E600020225A657B68032283F835207B68002294
:101E700083F83420032315E07B681B681B6803F09C
:101E80000103002BE4D17B68DB6D3F229A40FB68A5
:101E90009A607B68012283F835207B68002283F8F2
:101EA0003420002318461037BD4680BD80B483B06F
:101EB00000AF78607B6893F83530DBB2022B04D03A
:101EC0007B6880225A6501230CE07B68052283F839
:101ED00035207B681B681A687B681B6822F001024A
:101EE0001A60002318460C37BD465DF8047B704726
:101EF00080B489B000AF7860396000237B61002333
:101F00003B610023BB610023FB6165E10122FB69AA
:101F100002FA03F37B613B681B687A6913403B61FB
:101F20003A697B699A4240F054813B685B6803F0F0
:101F30000303012B05D03B685B6803F00303022B0E
:101F400030D17B689B68BB61FB695B00032202FAAE
:101F500003F3DB43BA691340BB613B68DA68FB6992
:101F60005B0002FA03F3BA691343BB617B68BA6989
:101F70009A607B685B68BB610122FB6902FA03F32C
:101F8000DB43BA691340BB613B685B681B0903F024
:101F90000102FB6902FA03F3BA691343BB617B6870
:101FA000BA695A603B685B6803F00303032B17D0E0
:101FB0007B68DB68BB61FB695B00032202FA03F309
:101FC000DB43BA691340BB613B689A68FB695B00FD
:101FD00002FA03F3BA691343BB617B68BA69DA603A
:101FE0003B685B6803F00303022B23D1FB69DA082B
:101FF0007B68083253F82230BB61FB6903F00703AA
:102000009B000F2202FA03F3DB43BA691340BB6162
:102010003B681A69FB6903F007039B0002FA03F3AC
:10202000BA691343BB61FB69DA087B680832B96996
:1020300043F822107B681B68BB61FB695B000322CD
:1020400002FA03F3DB43BA691340BB613B685B6888
:1020500003F00302FB695B0002FA03F3BA6913435E
:10206000BB617B68BA691A603B685B6803F4403304
:10207000002B00F0AE800023FB605D4B5B6C5C4A84
:1020800043F4804353645A4B5B6C03F48043FB601E
:10209000FB68584AFB699B08023352F82330BB6146
:1020A000FB6903F003039B000F2202FA03F3DB43F7
:1020B000BA691340BB617B684F4A934225D07B6865
:1020C0004E4A93421FD07B684D4A934219D07B6899
:1020D0004C4A934213D07B684B4A93420DD07B68A5
:1020E0004A4A934207D07B68494A934201D106236A
:1020F0000CE007230AE0052308E0042306E003239D
:1021000004E0022302E0012300E00023FA6902F068
:10211000030292009340BA691343BB613549FB69DE
:102120009B080233BA6941F823203A4B9B68BB6194
:102130003B69DB43BA691340BB613B685B6803F4EE
:102140008013002B03D0BA693B691343BB61314A4A
:10215000BB6993602F4BDB68BB613B69DB43BA69AA
:102160001340BB613B685B6803F40013002B03D092
:10217000BA693B691343BB61264ABB69D360254BEF
:102180005B68BB613B69DB43BA691340BB613B6879
:102190005B6803F40033002B03D0BA693B69134337
:1021A000BB611C4ABB6953601A4B1B68BB613B692E
:1021B000DB43BA691340BB613B685B6803F480335F
:1021C000002B03D0BA693B691343BB61114ABB6959
:1021D0001360FB690133FB61FB690F2B7FF696AE41
:1021E00000BF00BF2437BD465DF8047B704700BFC9
:1021F0000038024000380140000002400004024064
:1022000000080240000C024000100240001402408E
:1022100000180240003C014080B483B000AF7860F9
:102220000B467B8013467B707B78002B03D07A882B
:102230007B689A6103E07B881A047B689A6100BF1F
:102240000C37BD465DF8047B7047000080B582B056
:1022500000AF0346FB80084B5A69FB881340002BF4
:1022600006D0054AFB885361FB881846FEF7D6FE68
:1022700000BF0837BD4680BD003C0140F0B58FB0BF
:102280000AAF78607B68002B01D1012354E07B68A2
:102290001B68FB607B6893F8F932DBB2002B06D138
:1022A0007B68002283F8F82278680FF063F87B6877
:1022B000032283F8F922FB68DB6B03F48073002BA5
:1022C00002D17B6800221A617B681B68184605F002
:1022D0003CFD7B681B683B607E686D4606F1100420
:1022E0000FCC0FC50FCC0FC594E8030085E80300A1
:1022F000331D0ECB386805F013FC7B681B68012189
:10230000184605F033FD7B681B683B607E686D46B0
:1023100006F110040FCC0FC50FCC0FC594E80300D5
:1023200085E80300331D0ECB386807F041F87B6861
:10233000012283F8F922002318461437BD46F0BD68
:1023400090B589B004AF7860084611461A46034636
:10235000FB700B46BB7013467B707B6893F8F832BA
:10236000012B01D1022376E07B68012283F8F82259
:10237000FB787A682C2101FB03F313443D330022E0
:102380001A70FB787A682C2101FB03F3134438336D
:102390007A781A70FB787A682C2101FB03F31344D6
:1023A00040333A8D1A80FB787A682C2101FB03F3C5
:1023B00013443933FA781A70FB787A682C2101FBC0
:1023C00003F313443F3397F824201A70FB78BA784C
:1023D00002F07F02D0B27A682C2101FB03F3134490
:1023E0003A3302461A7097F90230002B09DAFB786B
:1023F0007A682C2101FB03F313443B3301221A704A
:1024000008E0FB787A682C2101FB03F313443B338B
:1024100000221A70FB787A682C2101FB03F3134425
:102420003C3397F820201A707B6818687C78BA785B
:10243000F9783B8D029397F82430019397F8203078
:102440000093234607F02EF90346FB737B680022B6
:1024500083F8F822FB7B18461437BD4690BD80B543
:1024600084B000AF78600B46FB700023FB737B6881
:1024700093F8F832012B01D102230FE07B6801228F
:1024800083F8F8227B681B68FA781146184607F033
:102490007EFB7B68002283F8F822FB7B184610370E
:1024A000BD4680BD80B582B000AF78600846114659
:1024B0001A460346FB700B46BB7013467B70FB78D5
:1024C0007A682C2101FB03F313443B33BA781A706A
:1024D000FB787A682C2101FB03F313443F337A78AD
:1024E0001A703B7C002B12D1FB787A682C2101FBFF
:1024F00003F31344423303221A70FB787A682C21C9
:1025000001FB03F313443D333A7F1A7008E0FB7874
:102510007A682C2101FB03F31344423302221A7020
:102520007B78032B00F2C68001A252F823F000BF93
:1025300041250008A1260008A5250008232600083B
:102540003B7C012B40F0B880BB78002B40F0B4807E
:102550003B8B002B08D1FB787A682C2101FB03F31D
:102560001344553301221A70FB787A682C2101FB41
:1025700003F3134455331B78002B09D1FB787A6899
:102580002C2101FB03F31344423300221A7093E021
:10259000FB787A682C2101FB03F3134442330222B7
:1025A0001A7089E0BB78002B1DD1FB787A682C214A
:1025B00001FB03F3134455331B78002B09D1FB783F
:1025C0007A682C2101FB03F31344423300221A7072
:1025D00073E0FB787A682C2101FB03F31344423348
:1025E00002221A7069E0FB787A682C2101FB03F360
:1025F000134454331B78002B09D1FB787A682C21C3
:1026000001FB03F31344423300221A7055E0FB78B8
:102610007A682C2101FB03F31344423302221A701F
:102620004BE0BB78002B1DD1FB787A682C2101FB95
:1026300003F3134455331B78002B09D1FB787A68D8
:102640002C2101FB03F31344423300221A7034E0BF
:10265000FB787A682C2101FB03F3134442330222F6
:102660001A702AE0FB787A682C2101FB03F31344EB
:1026700054331B78002B09D1FB787A682C2101FB9D
:1026800003F31344423300221A7016E0FB787A6891
:102690002C2101FB03F31344423302221A700CE095
:1026A000FB787A682C2101FB03F3134442330022A8
:1026B0001A7002E000BF00E000BFFB787A682C21AE
:1026C00001FB03F3134444337A691A60FB783A8BB5
:1026D00079682C2000FB03F30B444C331A60FB7821
:1026E0007A682C2101FB03F31344603300221A7033
:1026F000FB787A682C2101FB03F31344503300224A
:102700001A60FB787A682C2101FB03F313443933F8
:10271000FA781A70FB787A682C2101FB03F31344D2
:10272000613300221A707B681868FB782C2202FB48
:1027300003F338337A68D1187B681B69DBB21A4619
:1027400007F0D2F8034618460837BD4680BD00BFE3
:1027500080B586B000AF78607B681B683B613B69E1
:10276000FB607B681B68184606F05FFD0346012B83
:1027700040F0F6807B681B68184606F0C3FC0346F1
:10278000002B00F0EC807B681B68184606F0BAFC52
:10279000034603F40013B3F5001F04D17B681B68E4
:1027A0004FF400125A617B681B68184606F0AAFCB9
:1027B000034603F48013B3F5801F04D17B681B68C4
:1027C0004FF480125A617B681B68184606F09AFC29
:1027D000034603F08063B3F1806F04D17B681B680C
:1027E0004FF080625A617B681B68184606F08AFCCD
:1027F000034603F00203022B03D17B681B6802220D
:102800005A617B681B68184606F07CFC034603F09F
:102810000053B3F1005F1CD17B681B684FF000527E
:102820005A61FB6803F588631B6803F00103002B02
:102830000FD11021386905F043FC386905F074FCAC
:102840007B681B680121184606F066FE78680EF06A
:1028500025FE7B681B68184606F054FC034603F00F
:102860008073B3F1807F02D1786801F09EF87B68B5
:102870001B68184606F046FC034603F00803082BC5
:1028800006D178680EF0EEFD7B681B6808225A615D
:102890007B681B68184606F035FC034603F01003FE
:1028A000102B01D1012300E00023002B12D07B6804
:1028B0001B689A697B681B6822F010029A6178682D
:1028C00000F0A1FF7B681B689A697B681B6842F077
:1028D00010029A617B681B68184606F013FC0346D9
:1028E00003F00073B3F1007F3AD17B681B68184690
:1028F00007F03CF9B86000237B6125E07B6903F0B9
:102900000F03BA6822FA03F303F00103002B18D077
:102910007B695A01FB68134403F5A0631B6803F449
:102920000043B3F5004F06D17B69DBB219467868E6
:1029300000F0ABF805E07B69DBB21946786800F07F
:10294000F9FB7B6901337B617B689B687A699A42FA
:10295000D4D37B681B684FF000725A6100E000BF5F
:102960001837BD4680BD80B582B000AF78607B6807
:1029700093F8F832012B01D1022313E07B68012286
:1029800083F8F8227B681B680121184606F028FEB0
:102990007B681B68184605F0C7F97B68002283F83E
:1029A000F822002318460837BD4680BD80B582B0A6
:1029B00000AF78607B6893F8F832012B01D10223D5
:1029C0000DE07B68012283F8F8227B681B681846BB
:1029D00007F016FA7B68002283F8F82200231846D5
:1029E0000837BD4680BD80B582B000AF78607B6897
:1029F0001B68184606F0CAFD034618460837BD4650
:102A000080BD80B483B000AF78600B46FB70FB786C
:102A10007A682C2101FB03F3134460331B781846BA
:102A20000C37BD465DF8047B704780B483B000AFBF
:102A300078600B46FB70FB787A682C2101FB03F36E
:102A4000134450331B6818460C37BD465DF8047BB1
:102A5000704780B582B000AF78607B681B6818460D
:102A600006F00EFE034618460837BD4680BD80B509
:102A700082B000AF78607B681B68184606F0E9FDFD
:102A8000034618460837BD4680BD80B586B000AF06
:102A900078600B46FB707B681B687B617B693B61E0
:102AA000FB78FB60FB685A013B69134403F5A063A4
:102AB0009B6803F00403042B1AD1FB685A013B699D
:102AC000134403F5A0631A46042393607A68FB68F5
:102AD0002C2101FB03F31344613306221A707B6837
:102AE0001B68FA68D2B21146184607F050F8AFE0FA
:102AF000FB685A013B69134403F5A0639B6803F428
:102B00008073B3F5807F1BD1FB685A013B69134486
:102B100003F5A0631A464FF4807393607A68FB68EC
:102B20002C2101FB03F31344613307221A707B68E5
:102B30001B68FA68D2B21146184607F028F887E0F9
:102B4000FB685A013B69134403F5A0639B6803F0DB
:102B50002003202B09D1FB685A013B69134403F57C
:102B6000A0631A462023936072E0FB685A013B6918
:102B7000134403F5A0639B6803F00803082B1AD1E4
:102B8000FB685A013B69134403F5A0631A46082306
:102B900093607A68FB682C2101FB03F313446133D3
:102BA00005221A707B681B68FA68D2B21146184673
:102BB00006F0EDFF4CE0FB685A013B69134403F556
:102BC000A0639B6803F48063B3F5806F1BD1FB683F
:102BD0005A013B69134403F5A0631A464FF480631E
:102BE00093607A68FB682C2101FB03F31344613383
:102BF00008221A707B681B68FA68D2B21146184620
:102C000006F0C5FF24E0FB685A013B69134403F555
:102C1000A0639B6803F08003802B19D1FB685A01E5
:102C20003B69134403F5A0631A46802393607A68D6
:102C3000FB682C2101FB03F31344613306221A7055
:102C40007B681B68FA68D2B21146184606F09FFFEF
:102C5000FB685A013B69134403F5A0639B6803F4C6
:102C60000073B3F5007F12D17B681B68FA68D2B29B
:102C70001146184606F08BFFFB685A013B69134466
:102C800003F5A0631A464FF4007393604EE2FB68AD
:102C90005A013B69134403F5A0639B6803F00103E9
:102CA000012B40F0DF807B681B69002B19D07A680C
:102CB000FB682C2101FB03F3134448331A68FB68BB
:102CC00059013B690B4403F5A0631B69C3F312036D
:102CD000D21A7968FB682C2000FB03F30B445033B5
:102CE0001A607A68FB682C2101FB03F313446133FB
:102CF00001221A707A68FB682C2101FB03F313444C
:102D00005C3300221A60FB685A013B69134403F5E7
:102D1000A0631A46012393607A68FB682C2101FBAB
:102D200003F313443F331B78002B09D07A68FB6808
:102D30002C2101FB03F313443F331B78022B11D1E9
:102D40007B681B68FA68D2B21146184606F01FFF6E
:102D5000FB685A013B69134403F5A0631A4610232C
:102D600093603AE07A68FB682C2101FB03F313447B
:102D70003F331B78032B09D07A68FB682C2101FBB9
:102D800003F313443F331B78012B26D1FB685A0110
:102D90003B69134403F5A0631B68FA6851013A6963
:102DA0000A4402F5A06243F0005313607A68FB689E
:102DB0002C2101FB03F31344603301221A70FB68DA
:102DC000D9B27A68FB682C2000FB03F3134460330C
:102DD0001B781A4678680EF06FFB7B681B69012B25
:102DE0002BD17A68FB682C2101FB03F31344483391
:102DF0001B687968FA682C2000FB02F20A44403212
:102E00001288B3FBF2F303F00103002B00F08E8174
:102E10007A68FB682C2101FB03F3134454331B78BD
:102E200083F00103D8B27A68FB682C2101FB03F31D
:102E30001344543302461A7078E17A68FB682C21F7
:102E400001FB03F3134454331B7883F00103D8B21E
:102E50007A68FB682C2101FB03F3134454330246C8
:102E60001A7063E1FB685A013B69134403F5A063E0
:102E70009B6803F00203022B40F0F6807A68FB683F
:102E80002C2101FB03F3134461331B78012B09D17F
:102E90007A68FB682C2101FB03F3134460330122A1
:102EA0001A70C9E07A68FB682C2101FB03F3134414
:102EB00061331B78052B09D17A68FB682C2101FB53
:102EC00003F31344603305221A70B5E07A68FB6897
:102ED0002C2101FB03F3134461331B78062B09D02B
:102EE0007A68FB682C2101FB03F3134461331B78E0
:102EF000082B50D17A68FB682C2101FB03F31344A3
:102F00005C331B685A1C7968FB682C2000FB03F3B8
:102F10000B445C331A607A68FB682C2101FB03F3D5
:102F200013445C331B68022B12D97A68FB682C218E
:102F300001FB03F313445C3300221A607A68FB68D8
:102F40002C2101FB03F31344603304221A7073E055
:102F50007A68FB682C2101FB03F3134460330222DF
:102F60001A70FB685A013B69134403F5A0631B68A0
:102F7000BB60BB6823F08043BB60BB6843F0004389
:102F8000BB60FB685A013B69134403F5A0631A4612
:102F9000BB68136050E07A68FB682C2101FB03F3E7
:102FA000134461331B78032B22D17A68FB682C21F0
:102FB00001FB03F31344603302221A70FB685A01C9
:102FC0003B69134403F5A0631B68BB60BB6823F037
:102FD0008043BB60BB6843F00043BB60FB685A01A1
:102FE0003B69134403F5A0631A46BB68136023E0F2
:102FF0007A68FB682C2101FB03F3134461331B78CF
:10300000072B19D17A68FB682C2101FB03F31344C9
:103010005C331B685A1C7968FB682C2000FB03F3A7
:103020000B445C331A607A68FB682C2101FB03F3C4
:103030001344603304221A70FB685A013B6913443D
:1030400003F5A0631A4602239360FB68D9B27A683D
:10305000FB682C2000FB03F3134460331B781A46F3
:1030600078680EF029FA61E0FB685A013B69134465
:1030700003F5A0639B6803F01003102B56D17A6808
:10308000FB682C2101FB03F313443F331B78032B14
:1030900011D17A68FB682C2101FB03F313445C33E4
:1030A00000221A607B681B68FA68D2B21146184683
:1030B00006F06DFD31E07A68FB682C2101FB03F31B
:1030C00013443F331B78002B09D07A68FB682C210E
:1030D00001FB03F313443F331B78022B1DD17A68A5
:1030E000FB682C2101FB03F313445C3300221A60BC
:1030F0007B681B69002B10D17A68FB682C2101FBCF
:1031000003F31344613303221A707B681B68FA6867
:10311000D2B21146184606F03AFDFB685A013B69E7
:10312000134403F5A0631A461023936000BF1837B9
:10313000BD4680BD80B588B000AF78600B46FB709F
:103140007B681B68FB61FB69BB61FB787B617B690A
:103150005A01BB69134403F5A0639B6803F00403A1
:10316000042B1AD17B695A01BB69134403F5A06390
:103170001A46042393607A687B692C2101FB03F3D0
:103180001344613306221A707B681B687A69D2B2D5
:103190001146184606F0FBFC31E37B695A01BB6916
:1031A000134403F5A0639B6803F02003202B2ED16A
:1031B0007B695A01BB69134403F5A0631A462023B7
:1031C00093607A687B692C2101FB03F313443D3340
:1031D0001B78012B40F013837A687B692C2101FB5B
:1031E00003F313443D3300221A707A687B692C2163
:1031F00001FB03F31344603302221A707B681B68DF
:103200007A69D2B21146184606F0C1FCF7E27B6932
:103210005A01BB69134403F5A0639B6803F4007370
:10322000B3F5007F12D17B695A01BB69134403F5E2
:10323000A0631A464FF4007393607B681B687A6939
:10324000D2B21146184606F0A2FCD8E27B695A01B8
:10325000BB69134403F5A0639B6803F00103012BD2
:1032600040D17A687B692C2101FB03F313445C3362
:1032700000221A607B695A01BB69134403F5A063FD
:103280009B6803F04003402B11D17A687B692C21A5
:1032900001FB03F313443D3301221A707B695A0189
:1032A000BB69134403F5A0631A46402393607B690E
:1032B0005A01BB69134403F5A0631A4601239360C6
:1032C0007A687B692C2101FB03F3134461330122EB
:1032D0001A707B681B687A69D2B21146184606F0EC
:1032E00056FC8CE27B695A01BB69134403F5A06369
:1032F0009B6803F04003402B2CD17A687B692C211A
:1033000001FB03F31344613304221A707A687B696A
:103310002C2101FB03F313443D3301221A707A6818
:103320007B692C2101FB03F313445C3300221A60F8
:103330007B681B687A69D2B21146184606F027FCF2
:103340007B695A01BB69134403F5A0631A46402305
:10335000936054E27B695A01BB69134403F5A0638F
:103360009B6803F00803082B1AD17B695A01BB69DB
:10337000134403F5A0631A46082393607A687B69B7
:103380002C2101FB03F31344613305221A707B687F
:103390001B687A69D2B21146184606F0F8FB2EE295
:1033A0007B695A01BB69134403F5A0639B6803F072
:1033B0001003102B40D17A687B692C2101FB03F3A9
:1033C00013445C3300221A607A687B692C2101FB6C
:1033D00003F31344613303221A707A687B692C214A
:1033E00001FB03F313443D331B78002B12D17A68A1
:1033F0007B692C2101FB03F313443C331B78002B26
:1034000008D17A687B692C2101FB03F313443D3317
:1034100001221A707B681B687A69D2B2114618467D
:1034200006F0B5FB7B695A01BB69134403F5A06341
:103430001A4610239360E2E17B695A01BB69134489
:1034400003F5A0639B6803F08003802B64D17B6845
:103450001B69002B11D17A687B692C2101FB03F3D6
:103460001344613306221A707B681B687A69D2B2F2
:103470001146184606F08BFB44E07A687B692C21E4
:1034800001FB03F313445C331B685A1C79687B69A6
:103490002C2000FB03F30B445C331A607A687B69D1
:1034A0002C2101FB03F313445C331B68022B20D94E
:1034B0007A687B692C2101FB03F313445C330022FF
:1034C0001A607A687B692C2101FB03F31344603393
:1034D00004221A707B69D9B27A687B692C2000FBC0
:1034E00003F3134460331B781A4678680DF0E4FF49
:1034F00008E07A687B692C2101FB03F313446033F5
:1035000002221A707B695A01BB69134403F5A06358
:103510001A468023936072E17B695A01BB691344A8
:1035200003F5A0639B6803F48063B3F5806F1BD140
:103530007A687B692C2101FB03F313446133082271
:103540001A707B681B687A69D2B21146184606F079
:103550001EFB7B695A01BB69134403F5A0631A463D
:103560004FF4806393604AE17B695A01BB6913445D
:1035700003F5A0639B6803F00203022B40F03F8138
:103580007A687B692C2101FB03F3134461331B78B8
:10359000012B7DD17A687B692C2101FB03F3134455
:1035A000603301221A707A687B692C2101FB03F3D6
:1035B00013443F331B78022B0AD07A687B692C2195
:1035C00001FB03F313443F331B78032B40F00081CE
:1035D0007B681B69002B13D17A687B692C2101FB66
:1035E00003F3134455331B7883F00103D8B27A6890
:1035F0007B692C2101FB03F31344553302461A70F7
:103600007B681B69012B40F0E3807A687B692C2181
:1036100001FB03F313444C331B68002B00F0D880EC
:103620007A687B692C2101FB03F313444C331B683C
:1036300079687A692C2000FB02F20A444032128831
:103640001344013B79687A692C2000FB02F20A449A
:1036500040321288B3FBF2F3FB60FB6803F0010316
:10366000002B00F0B5807A687B692C2101FB03F305
:10367000134455331B7883F00103D8B27A687B6911
:103680002C2101FB03F31344553302461A709FE0CB
:103690007A687B692C2101FB03F3134461331B78A7
:1036A000032B09D17A687B692C2101FB03F31344B6
:1036B000603302221A708BE07A687B692C2101FB4F
:1036C00003F3134461331B78042B09D17A687B69B7
:1036D0002C2101FB03F31344603302221A7077E0BC
:1036E0007A687B692C2101FB03F3134461331B7857
:1036F000052B09D17A687B692C2101FB03F3134464
:10370000603305221A7063E07A687B692C2101FB23
:1037100003F3134461331B78062B09D07A687B6965
:103720002C2101FB03F3134461331B78082B4FD189
:103730007A687B692C2101FB03F313445C331B681B
:103740005A1C79687B692C2000FB03F30B445C3323
:103750001A607A687B692C2101FB03F313445C3304
:103760001B68022B12D97A687B692C2101FB03F3B9
:1037700013445C3300221A607A687B692C2101FBB8
:1037800003F31344603304221A7021E07A687B69E2
:103790002C2101FB03F31344603302221A707B696E
:1037A0005A01BB69134403F5A0631B683B613B6985
:1037B00023F080433B613B6943F000433B617B69FD
:1037C0005A01BB69134403F5A0631A463B691360B1
:1037D0007B695A01BB69134403F5A0631A460223AF
:1037E00093607B69D9B27A687B692C2000FB03F374
:1037F000134460331B781A4678680DF05DFE00BFF5
:103800002037BD4680BD80B58AB000AF78607B6848
:103810001B687B627B6A3B627B681B681B6AFB617F
:10382000FB6903F00F03BB61FB695B0C03F00F0343
:103830007B61FB691B09C3F30A033B617B69022BB4
:1038400004D07B69052B00F0A980AAE03B69002B1E
:1038500000F0A6807A68BB692C2101FB03F31344B6
:1038600044331B68002B00F09B807A68BB692C21D5
:1038700001FB03F3134450331A683B691A44796817
:10388000BB692C2000FB03F30B444C331B689A42AA
:103890007AD87B6818687A68BB692C2101FB03F32E
:1038A000134444331B683A6992B2194605F096FAFC
:1038B0007A68BB692C2101FB03F3134444331A6873
:1038C0003B691A447968BB692C2000FB03F30B4465
:1038D00044331A607A68BB692C2101FB03F313445B
:1038E00050331A683B691A447968BB692C2000FB85
:1038F00003F30B4450331A60BB695A013B6A13440B
:1039000003F5A0631B69DB0CC3F30903FB607A6852
:10391000BB692C2101FB03F3134440331B881A4677
:103920003B6993423CD1FB68002B39D0BB695A01FB
:103930003B6A134403F5A0631B68BB60BB6823F0BC
:103940008043BB60BB6843F00043BB60BB695A0166
:103950003B6A134403F5A0631A46BB6813607A6898
:10396000BB692C2101FB03F3134454331B7883F010
:103970000103D8B27A68BB692C2101FB03F313441D
:10398000543302461A700BE07A68BB692C2101FBA4
:1039900003F31344603304221A7001E000BF00E017
:1039A00000BF00BF2837BD4680BD80B586B000AFE0
:1039B00078607B681B687B617B693B613B6903F5D1
:1039C00088631B68FB603B6903F588631B68BB6009
:1039D000BB6823F02E03BB60FB6803F00203022BDD
:1039E0000BD1FB6803F00103012B02D178680DF0C5
:1039F00047FDBB6843F00203BB60FB6803F00803AC
:103A0000082B32D1BB6843F00803BB60FB6803F0AE
:103A10000403042B26D17B689B69022B13D1FB681E
:103A200003F4C023B3F5802F06D17B681B68022105
:103A3000184605F071FD11E07B681B6801211846EE
:103A400005F06AFD0AE07B68DB68012B06D13B6963
:103A500003F580631A464EF66023536078680DF0D4
:103A60003DFD02E078680DF047FDFB6803F02003A0
:103A7000202B03D1BB6843F02003BB603B6903F5F7
:103A800088631A46BB68136000BF1837BD4680BD07
:103A9000F0B58FB00AAF78607B68002B01D10123AD
:103AA00016E17B681B68BB607B6893F8BD34DBB2B2
:103AB000002B06D17B68002283F8BC2478680DF0C7
:103AC0009DF87B68032283F8BD24BB68DB6B03F49D
:103AD0008073002B02D17B6800221A617B681B680F
:103AE000184604F032F97B681B683B607E686D46BF
:103AF00006F110040FCC0FC50FCC0FC594E80300DE
:103B000085E80300331D0ECB386804F009F803463E
:103B1000002B05D07B68022283F8BD240123D7E067
:103B20007B681B680021184604F020F90023FB7312
:103B30004AE0FA7B79681346DB0013449B000B4490
:103B40003D3301221A70FA7B79681346DB00134477
:103B50009B000B443C33FA7B1A70FA7BFB7B98B2D8
:103B600079681346DB0013449B000B444433024640
:103B70001A80FA7B79681346DB0013449B000B44E0
:103B8000403300221A70FA7B79681346DB00134435
:103B90009B000B44483300221A60FA7B7968134675
:103BA000DB0013449B000B444C3300221A60FA7B69
:103BB00079681346DB0013449B000B445433002206
:103BC0001A60FB7B0133FB73FA7B7B685B689A426C
:103BD000AFD30023FB7344E0FA7B79681346DB0024
:103BE00013449B000B4403F27D2300221A70FA7BDE
:103BF00079681346DB0013449B000B4403F51F73E5
:103C0000FA7B1A70FA7B79681346DB0013449B0039
:103C10000B4403F5207300221A70FA7B796813466F
:103C2000DB0013449B000B4403F5227300221A604F
:103C3000FA7B79681346DB0013449B000B4403F5C1
:103C4000237300221A60FA7B79681346DB00134461
:103C50009B000B4403F5257300221A60FB7B0133A4
:103C6000FB73FA7B7B685B689A42B5D37B681B6801
:103C70003B607E686D4606F110040FCC0FC50FCC7B
:103C80000FC594E8030085E80300331D0ECB3868A8
:103C900004F0B8F80346002B05D07B68022283F8B5
:103CA000BD24012314E07B68002283F838207B6860
:103CB000012283F8BD247B685B6A012B02D17868FE
:103CC00001F074F97B681B68184605F0FAF90023C7
:103CD00018461437BD46F0BD80B584B000AF78609B
:103CE0007B681B68FB607B6893F8BC34012B01D1B7
:103CF000022320E07B68012283F8BC247B689B6A56
:103D0000012B09D17B689B69012B05D0FB689B6B5C
:103D100043F48032FB689A637B681B68184604F0A2
:103D200003F87B681B68184605F0AAF97B68002237
:103D300083F8BC24002318461037BD4680BD90B5DB
:103D40008DB000AF78607B681B683B623B6AFB61AB
:103D50007B681B68184605F068FA0346002B40F0A4
:103D6000B7847B681B68184605F0CCF90346002B26
:103D700000F0AD84FB6903F500639B681B0AC3F385
:103D80000D027B68C3F8FC247B681B68184605F0AD
:103D9000B9F9034603F00203022B07D17B681B68C5
:103DA0005A697B681B6802F002025A617B681B68D3
:103DB000184605F0A7F9034603F01003102B61D154
:103DC0007B681B689A697B681B6822F010029A6105
:103DD0003B6A1B6ABB61BB6903F00F021346DB0041
:103DE00013449B0003F51E737A68134404337B610C
:103DF000BB695B0C03F00F03022B24D1BA6947F6B1
:103E0000F0731340002B35D07B691969BB691B091E
:103E10009BB2C3F30A039BB21A46386A04F0DEFF72
:103E20007B691A69BB691B09C3F30A031A447B69DE
:103E30001A617B691A6ABB691B09C3F30A031A4436
:103E40007B691A6216E0BB695B0C03F00F03062B5B
:103E500010D17B6803F2C44308221946386A04F083
:103E6000BDFF7B691A6ABB691B09C3F30A031A44C5
:103E70007B691A627B681B689A697B681B6842F0E1
:103E800010029A617B681B68184605F03BF90346EF
:103E900003F40023B3F5002F40F0A78000237B62DA
:103EA0007B681B68184605F040F9B86299E0BB6A68
:103EB00003F00103002B00F08E807B681B687A6A98
:103EC000D2B21146184605F064F938613B6903F037
:103ED0000103002B0CD07B6A5A01FB69134403F5E4
:103EE00030631A4601239360796A786800F0D8FE3F
:103EF0003B6903F00803002B0CD07B6A5A01FB6975
:103F0000134403F530631A4608239360796A78688E
:103F100000F0AEFF3B6903F01003002B08D07B6A72
:103F20005A01FB69134403F530631A46102393606A
:103F30003B6903F00203002B30D03B6A5B6903F05E
:103F40008003802B09D1FB6903F500635B68FA6984
:103F500002F5006243F4806353607A6A1346DB0023
:103F600013449B0003F51E737A68134404337B618A
:103F70007B69DB78012B08D17B690022DA707B6AD0
:103F8000DBB2194678680CF051FF7B6A5A01FB6975
:103F9000134403F530631A46022393603B6903F030
:103FA0002003002B08D07B6A5A01FB69134403F5F8
:103FB00030631A46202393603B6903F40053002BBF
:103FC00009D07B6A5A01FB69134403F530631A4632
:103FD0004FF4005393607B6A01337B62BB6A5B08DA
:103FE000BB62BB6A002B7FF462AF7B681B6818461C
:103FF00005F088F8034603F48023B3F5802F40F0E2
:10400000DB807B681B68184605F0A9F8B8620023BE
:104010007B62CDE0BB6A03F00103002B00F0C2809D
:104020007B681B687A6AD2B21146184605F0CFF851
:1040300038613B6903F00103002B57D07B6A03F022
:104040000F03012202FA03F3FB60FB6903F500632F
:104050005A6BFB68DB43F96901F5006113404B6360
:104060007B6A5A01FB69134403F510631A46012366
:1040700093607B681B69012B32D179687A6A134699
:10408000DB0013449B000B444C33196878687A6A50
:104090001346DB0013449B00034448331B68194458
:1040A00078687A6A1346DB0013449B0003444C3360
:1040B00019607B6A002B13D179687A6A1346DB009A
:1040C00013449B000B4454331B68002B08D17B68BE
:1040D00018687B6803F2C4431A46012105F0D6F83C
:1040E0007B6ADBB2194678680CF01BFE3B6903F073
:1040F0000803002B08D07B6A5A01FB69134403F5BF
:1041000010631A46082393603B6903F01003002BE9
:1041100008D07B6A5A01FB69134403F510631A4601
:10412000102393603B6903F04003002B08D07B6AA7
:104130005A01FB69134403F510631A464023936048
:104140003B6903F00203002B23D0796A386A03F03D
:10415000B7FF7A6A1346DB0013449B0038337A6852
:10416000134404337B617B69DB78012B08D17B69C5
:104170000022DA707B6ADBB2194678680CF068FEC0
:104180007B6A5A01FB69134403F510631A46022344
:1041900093603B6903F08003002B03D0796A786851
:1041A00000F0F0FC7B6A01337B62BB6A5B08BB6298
:1041B000BB6A002B7FF42EAF7B681B68184604F0A7
:1041C000A1FF034603F00043B3F1004F22D1FB6986
:1041D00003F500635B68FA6902F5006223F00103EE
:1041E00053607B6893F8F434012B08D17B6800227C
:1041F00083F8F424002178680CF0D6FF02E0786898
:104200000CF006FE7B681B685A697B681B6802F02D
:1042100000425A617B681B68184604F073FF03462E
:1042200003F40063B3F5006F12D1FB6903F500637B
:104230009B6803F00103012B02D178680CF0C2FDEA
:104240007B681B685A697B681B6802F400625A61CC
:104250007B681B68184604F055FF034603F00063B3
:10426000B3F1006F21D17B681B685A697B681B68BA
:1042700002F000625A617B6893F8F434002B11D18C
:104280007B68012283F8F4247B681B685B6D9B08C4
:1042900003F00F027B68C3F8F824012178680CF062
:1042A00083FF02E078680CF08DFD7B681B68184680
:1042B00004F028FF034603F48053B3F5805F40F019
:1042C000B780FB6903F500635B68FA6902F5006279
:1042D00023F0010353607B681B681021184603F02C
:1042E000EFFE0023FB6246E0FB6A5A01FB691344C0
:1042F00003F510631A464FF67F339360FB6A5A0149
:10430000FB69134403F510631B68FA6A5101FA69EB
:104310000A4402F5106223F400131360FB6A5A0189
:10432000FB69134403F530631A464FF67F339360FD
:10433000FB6A5A01FB69134403F530631B68FA6A90
:104340005101FA690A4402F5306223F40013136044
:10435000FB6A5A01FB69134403F530631B68FA6A70
:104360005101FA690A4402F5306243F000631360B8
:10437000FB6A0133FB627B685B68FA6A9A42B3D3DB
:10438000FB6903F50063DB69FA6902F5006243F03B
:104390000113D3617B681B6B002B16D0FB6903F5FF
:1043A0000063D3F88430FA6902F5006243F00B032E
:1043B000C2F88430FB6903F500635B6CFA6902F5AF
:1043C000006243F00B03536415E0FB6903F50063DF
:1043D0005B69FA6902F5006243F4005343F02B0372
:1043E0005361FB6903F500631B69FA6902F500621A
:1043F00043F00B031361FB6903F500631B68FA6963
:1044000002F5006223F4FE6313607B6818687B6822
:104410001B69D9B27B6803F2C4431A4604F036FF25
:104420007B681B685A697B681B6802F480525A617A
:104430007B681B68184604F065FE034603F40053CE
:10444000B3F5005F24D17B681B68184604F0FBFEBF
:104450007B681B68184603F0B0FE03461A467B686B
:10446000DA607B681C6800F0ABFE01467B68DB68A5
:10447000DBB21A46204603F0B5FB78680CF079FCF5
:104480007B681B685A697B681B6802F400525A619A
:104490007B681B68184604F035FE034603F00803EA
:1044A000082B0AD178680CF056FC7B681B685A69A7
:1044B0007B681B6802F008025A617B681B6818461B
:1044C00004F020FE034603F08003802B22D13B6AD8
:1044D0009B6923F080023B6A9A6101237B6214E0AE
:1044E00079687A6A1346DB0013449B000B4403F29D
:1044F0007F231B78012B05D17B6ADBB219467868D4
:1045000000F00FFB7B6A01337B627B685B687A6A31
:104510009A42E5D37B681B68184604F0F3FD034616
:1045200003F48013B3F5801F3BD101237B622BE0A2
:104530007B6A5A01FB69134403F510631B68BB6176
:1045400079687A6A1346DB0013449B000B444033BE
:104550001B78012B15D1BB69002B12DA79687A6AB6
:104560001346DB0013449B000B443F3301221A70B7
:104570007B6ADBB263F07F03DBB21946786800F038
:10458000D0FA7B6A01337B627B685B687A6A9A4205
:10459000CED37B681B685A697B681B6802F4801263
:1045A0005A617B681B68184604F0ACFD034603F4AF
:1045B0000013B3F5001F55D101237B6245E07B6AF0
:1045C0005A01FB69134403F530631B68BB617968CA
:1045D0007A6A1346DB0013449B000B4403F52073F7
:1045E0001B78012B2ED1BB69002B2BDABB6903F49E
:1045F00080327B68D3F8FC3403F001039A4221D166
:1046000079687A6A1346DB0013449B000B4403F27B
:104610007F2301221A703B6A9B6943F080023B6A48
:104620009A613B6A5B6903F08003002B0AD1FB6946
:1046300003F500635B68FA6902F5006243F40073F6
:10464000536007E07B6A01337B627B685B687A6A50
:104650009A42B4D37B681B685A697B681B6802F472
:1046600000125A617B681B68184604F04BFD034634
:1046700003F08043B3F1804F0AD178680CF0FAFB65
:104680007B681B685A697B681B6802F080425A612C
:104690007B681B68184604F035FD034603F00403ED
:1046A000042B15D17B681B685B68BB61BB6903F099
:1046B0000403002B02D078680CF0EAFB7B681B68CF
:1046C00059687B681B68BA690A435A6000E000BFFA
:1046D0003437BD4690BD80B582B000AF78600B46E0
:1046E000FB707B6893F8BC34012B01D1022313E0EB
:1046F0007B68012283F8BC247B68FA7883F8382031
:104700007B681B68FA781146184604F093FC7B68B6
:10471000002283F8BC24002318460837BD4680BD1C
:1047200080B584B000AF7860084611461A4603464B
:10473000FB700B463B801346BB700023FB7297F95E
:104740000330002B0FDAFB7803F00F021346DB0077
:1047500013449B0038337A6813440433FB60FB68CE
:1047600001225A700FE0FB7803F00F021346DB00C2
:1047700013449B0003F51E737A6813440433FB60F3
:10478000FB6800225A70FB7803F00F03DAB2FB6873
:104790001A703A88FB68DA60FB68BA781A71FB68AD
:1047A0005B78002B04D0FB681B789AB2FB681A81F7
:1047B000BB78022B02D1FB6800225A717B6893F808
:1047C000BC34012B01D102230EE07B68012283F867
:1047D000BC247B681B68F968184603F013FD7B68EE
:1047E000002283F8BC24FB7A18461037BD4680BDF2
:1047F00080B584B000AF78600B46FB7097F903304A
:10480000002B0FDAFB7803F00F021346DB00134492
:104810009B0038337A6813440433FB60FB68012241
:104820005A700FE0FB7803F00F021346DB001344CD
:104830009B0003F51E737A6813440433FB60FB6826
:1048400000225A70FB7803F00F03DAB2FB681A708B
:104850007B6893F8BC34012B01D102230EE07B6806
:10486000012283F8BC247B681B68F968184603F0B2
:1048700051FD7B68002283F8BC24002318461037C2
:10488000BD4680BD80B586B000AFF8607A603B6001
:104890000B46FB72FB7A03F00F021346DB00134456
:1048A0009B0003F51E73FA68134404337B617B6934
:1048B0007A681A617B693A689A617B6900221A6298
:1048C0007B6900225A70FB7A03F00F03DAB27B692E
:1048D0001A70FB681B69012B02D17A687B695A61E7
:1048E000FB7A03F00F03002B09D1FB681868FB6803
:1048F0001B69DBB21A46796904F030F808E0FB68FE
:104900001868FB681B69DBB21A46796903F0DEFDA3
:10491000002318461837BD4680BD80B586B000AF6D
:10492000F8607A603B600B46FB72FB7A03F00F0283
:104930001346DB0013449B003833FA6813440433F6
:104940007B617B697A681A617B693A689A617B69E5
:1049500000221A627B6901225A70FB7A03F00F036E
:10496000DAB27B691A70FB681B69012B02D17A6885
:104970007B695A61FB7A03F00F03002B09D1FB68B6
:104980001868FB681B69DBB21A46796903F0E6FF19
:1049900008E0FB681868FB681B69DBB21A46796996
:1049A00003F094FD002318461837BD4680BD80B53E
:1049B00084B000AF78600B46FB70FB7803F00F0209
:1049C0007B685B689A4201D9012350E097F9033074
:1049D000002B0FDAFB7803F00F021346DB001344C1
:1049E0009B0038337A6813440433FB60FB68012270
:1049F0005A700DE0FA781346DB0013449B0003F570
:104A00001E737A6813440433FB60FB6800225A70FB
:104A1000FB6801229A70FB7803F00F03DAB2FB689F
:104A20001A707B6893F8BC34012B01D102231EE07D
:104A30007B68012283F8BC247B681B68F9681846F0
:104A400004F024FAFB7803F00F03002B0AD17B68F3
:104A500018687B681B69D9B27B6803F2C4431A46A5
:104A600004F014FC7B68002283F8BC240023184661
:104A70001037BD4680BD80B584B000AF78600B466E
:104A8000FB70FB7803F00F027B685B689A4201D9E8
:104A9000012342E097F90330002B0FDAFB7803F093
:104AA0000F021346DB0013449B0038337A6813442B
:104AB0000433FB60FB6801225A700FE0FB7803F0BF
:104AC0000F021346DB0013449B0003F51E737A6844
:104AD00013440433FB60FB6800225A70FB68002219
:104AE0009A70FB7803F00F03DAB2FB681A707B68E8
:104AF00093F8BC34012B01D102230EE07B68012224
:104B000083F8BC247B681B68F968184604F02CFA0B
:104B10007B68002283F8BC24002318461037BD466A
:104B200080BD80B584B000AF78600B46FB7097F90C
:104B30000330002B0CDAFB7803F00F021346DB0086
:104B400013449B0038337A6813440433FB600CE051
:104B5000FB7803F00F021346DB0013449B0003F5C0
:104B60001E737A6813440433FB607B681B68F96822
:104B7000184604F04BF80346FB72FB7A18461037D0
:104B8000BD4680BD80B58AB002AF786039607B6871
:104B90001B687B617B693B613A681346DB00134409
:104BA0009B0038337A6813440433FB60FB681A6A4D
:104BB000FB689B699A4201D901236CE0FB689A6902
:104BC000FB681B6AD31AFB61FB68DB68FA699A42CF
:104BD00002D9FB68DB68FB61FB6903339B08BB619F
:104BE0002BE0FB689A69FB681B6AD31AFB61FB68C0
:104BF000DB68FA699A4202D9FB68DB68FB61FB69F2
:104C000003339B08BB61FB6819693B68DAB2FB6937
:104C100098B27B681B69DBB200930346786904F0A5
:104C20009FF8FB681A69FB691A44FB681A61FB6804
:104C30001A6AFB691A44FB681A623B685A013B69AD
:104C4000134403F510639B699BB2BA699A4209D871
:104C5000FB681A6AFB689B699A4203D2FB689B69EE
:104C6000002BBED1FB689A69FB681B6A9A4211D877
:104C70003B6803F00F03012202FA03F3BB603B69B8
:104C800003F500635A6BBB68DB43396901F50061CA
:104C900013404B63002318462037BD4680BD0000FB
:104CA00080B588B000AF786039607B681B68FB61B5
:104CB000FB69BB61FB693C3304331B687B613B6868
:104CC0005A01BB69134403F530639B683B617B6801
:104CD0001B69012B7BD13B6903F00803002B15D026
:104CE0007B69614A934240F2B9803B6903F4004317
:104CF000002B00F0B3803B685A01BB69134403F5F5
:104D000030631A464FF400439360A7E03B6903F019
:104D10002003002B09D03B685A01BB69134403F5FB
:104D200030631A462023936098E03B6903F0280320
:104D3000002B40F093807B694B4A93420FD93B692B
:104D400003F40043002B0AD03B685A01BB691344AB
:104D500003F530631A464FF4004393607EE03A68EF
:104D60001346DB0013449B0003F51E737A6813445B
:104D70000433FB60FB68DA693B685901BB690B448B
:104D800003F530631B69C3F31203D21AFB681A627E
:104D90003B68002B14D1FB689B69002B09D17B6811
:104DA00018687B6803F2C4431A46012104F06EFAC6
:104DB00006E0FB681A69FB681B6A1A44FB681A6103
:104DC0003B68DBB2194678680BF090FF46E07B69E0
:104DD000264A934224D13B6903F40043002B0AD0B6
:104DE0003B685A01BB69134403F530631A464FF41C
:104DF0000043936032E03B6903F02003002B08D0AE
:104E00003B685A01BB69134403F530631A462023FB
:104E100093603B68DBB2194678680BF067FF1DE0D2
:104E20003B68002B14D179683A681346DB001344C1
:104E30009B000B4403F525731B68002B08D17B688E
:104E400018687B6803F2C4431A46002104F01EFA76
:104E50003B68DBB2194678680BF048FF0023184620
:104E60002037BD4680BD00BF0A30544F0A31544F31
:104E700080B586B000AF786039607B681B687B6165
:104E80007B693B617B693C3304331B68FB603B6897
:104E90005A013B69134403F530639B68BB60FB68B0
:104EA000154A93420ED9BB6803F40043002B09D086
:104EB0003B685A013B69134403F530631A464FF4CB
:104EC0000043936078680BF0FFFEFB680A4A934248
:104ED0000CD97B681B69012B08D17B6818687B683B
:104EE00003F2C4431A46012104F0D0F90023184606
:104EF0001837BD4680BD00BF0A30544F80B485B01E
:104F000000AF78600B46FB7013463B807B681B68E4
:104F10005B6ABB60FB78002B07D13B8819047B6878
:104F20001B68BA680A439A6228E07B681B689B6A20
:104F30001B0CBA681344BB600023FB730DE07B6855
:104F40001A68FB7B40339B0013445B681B0CBA68F8
:104F50001344BB60FB7B0133FB73FA7BFB78013BA3
:104F60009A42ECD33B8818047B681968FB78013BB4
:104F7000BA68024340339B000B445A600023184632
:104F80001437BD465DF8047B704780B483B000AF32
:104F900078600B467B807B681B687A885A620023A6
:104FA00018460C37BD465DF8047B704780B485B069
:104FB00000AF78607B681B68FB607B680122C3F8E8
:104FC00000257B68002283F8F424FB689B6943F08A
:104FD0000062FB689A61FB685B6D43F0805343F0AD
:104FE0000303FA685365002318461437BD465DF87D
:104FF000047B704780B584B000AF786039607B680F
:10500000002B01D10123CCE0684B1B6803F00F0398
:105010003A689A420CD9654B3A68D2B21A70634B1F
:105020001B6803F00F033A689A4201D00123B8E0ED
:105030007B681B6803F00203002B20D07B681B6891
:1050400003F00403002B05D0594B9B68584A43F4E6
:10505000E05393607B681B6803F00803002B05D0C6
:10506000534B9B68524A43F460439360504B9B6898
:1050700023F0F0027B689B684D4913438B607B688B
:105080001B6803F00103002B44D07B685B68012B95
:1050900007D1474B1B6803F40033002B19D10123C0
:1050A0007FE07B685B68022B03D07B685B68032B27
:1050B00007D13F4B1B6803F00073002B09D101237C
:1050C0006FE03B4B1B6803F00203002B01D101236F
:1050D00067E0374B9B6823F003027B685B683449C9
:1050E00013438B60FCF760FDF8600AE0FCF75CFDA1
:1050F0000246FB68D31A41F28832934201D9032356
:105100004FE02B4B9B6803F00C027B685B689B00B5
:105110009A42EBD1254B1B6803F00F033A689A4281
:105120000CD2224B3A68D2B21A70204B1B6803F0A3
:105130000F033A689A4201D0012332E07B681B6872
:1051400003F00403002B08D0194B9B6823F4E052B2
:105150007B68DB68164913438B607B681B6803F030
:105160000803002B09D0124B9B6823F460427B6834
:105170001B69DB000E4913438B6000F0B1FB024654
:105180000B4B9B681B0903F00F030A49CB5C22FA07
:1051900003F3094A1360094B1B681846FCF7A2FB8E
:1051A000002318461037BD4680BD00BF003C0240BA
:1051B000003802409C240108080000200C00002058
:1051C00080B400AF034B1B681846BD465DF8047BF6
:1051D000704700BF0800002080B500AFFFF7F0FF68
:1051E0000246054B9B689B0A03F007030349CB5C0F
:1051F00022FA03F3184680BD00380240AC240108AF
:1052000080B500AFFFF7DCFF0246054B9B685B0BE8
:1052100003F007030349CB5C22FA03F3184680BD71
:1052200000380240AC24010880B483B000AF78603D
:1052300039607B680F221A60124B9B6803F00302EF
:105240007B685A600F4B9B6803F0F0027B689A60A2
:105250000C4B9B6803F4E0527B68DA60094B9B6857
:10526000DB0803F4E0527B681A61074B1B6803F00C
:105270000F023B681A6000BF0C37BD465DF8047B27
:10528000704700BF00380240003C024080B58CB03F
:1052900000AF786000237B6200233B620023FB6148
:1052A0000023BB6100237B6100233B610023FB6083
:1052B0000023FB620023BB627B681B6803F00103D1
:1052C000002B10D06F4BD3F88C3023F0C0627B687A
:1052D0009B6B6C491343C1F88C307B689B6B002B34
:1052E00001D10123FB627B681B6803F00203002BE2
:1052F00010D0644BD3F88C3023F0C0527B68DB6B4A
:1053000060491343C1F88C307B68DB6B002B01D103
:105310000123FB627B681B6803F00403002B17D09A
:10532000584BD3F88C3023F440127B681B6B5549E3
:105330001343C1F88C307B681B6BB3F5801F01D120
:105340000123FB627B681B6B002B01D10123BB6235
:105350007B681B6803F00803002B17D0494BD3F878
:105360008C3023F440027B685B6B46491343C1F8E1
:105370008C307B685B6BB3F5800F01D10123FB623E
:105380007B685B6B002B01D10123BB627B681B68D0
:1053900003F02003002B00F08A800023BB60394B10
:1053A0001B6C384A43F080531364364B1B6C03F07C
:1053B0008053BB60BB68344B1B68334A43F4807333
:1053C0001360FCF7F1FB786208E0FCF7EDFB0246A6
:1053D0007B6AD31A022B01D9032378E22A4B1B687C
:1053E00003F48073002BF0D0264B1B6F03F4407343
:1053F0003B623B6A002B2FD07B681B6C03F440732D
:105400003A6A9A4228D01F4B1B6F23F440733B62C9
:105410001E4B01221A601D4B00221A60194A3B6A7A
:105420001367184B1B6F03F00103012B14D1FCF71A
:10543000BBFB78620AE0FCF7B7FB02467B6AD31A33
:1054400041F28832934201D9032340E20D4B1B6F96
:1054500003F00203002BEED07B681B6C03F4407357
:10546000B3F5407F14D1074B9B6823F4F8127B6897
:105470001B6C23F0704323F44073024913438B6089
:105480000CE000BF0038024000700040400E474270
:105490004A4B9B68494A23F4F8139360474B1A6FB1
:1054A0007B681B6CC3F30B03444913430B677B6896
:1054B0001B6803F01003002B04D07B6893F858207E
:1054C0003F4B1A607B681B6803F08003002B0AD0F7
:1054D0003A4BD3F8943023F440027B68DB6C3749B5
:1054E0001343C1F894307B681B6803F04003002B22
:1054F0000AD0324BD3F8943023F080627B689B6CE7
:105500002E491343C1F894307B681B6803F4807301
:10551000002B11D0294BD3F8943023F000627B6824
:105520005B6D26491343C1F894307B685B6DB3F122
:10553000006F01D10123BB627B681B6803F4007319
:10554000002B0AD01D4BD3F8943023F080527B6897
:105550005B6C1A491343C1F894307B681B6803F4F1
:105560008063002B11D0154BD3F8943023F00052F8
:105570007B681B6D11491343C1F894307B681B6D28
:10558000B3F1005F01D10123FB62FB6A012B05D05F
:105590007B681B68B3F5006F40F0FF80094B002269
:1055A0001A60FCF701FB78620EE0FCF7FDFA024698
:1055B0007B6AD31A022B07D9032388E10038024003
:1055C000E0114742680047427E4B1B6803F00063CE
:1055D000002BEAD17B681B6803F00103002B03D08A
:1055E0007B689B6B002B09D07B681B6803F0020370
:1055F000002B28D07B68DB6B002B24D1714BD3F8B8
:1056000084301B0C03F0030301335B00FB616D4B23
:10561000D3F884301B0E03F00F03BB617B685A681C
:105620007B689B689B011A43FB695B08013B1B0479
:105630001A43BB691B061A437B685B691B076149F8
:105640001343C1F884307B681B6803F00403002B0C
:1056500004D07B681B6BB3F5801F0AD07B681B6886
:1056600003F00803002B35D07B685B6BB3F5800F2C
:1056700030D1544BD3F884301B0C03F003030133B7
:105680005B00FB614F4BD3F884301B0F03F0070323
:105690007B617B685A687B689B689B011A43FB6946
:1056A0005B08013B1B041A437B681B691B061A43FA
:1056B0007B691B0743491343C1F88430414BD3F83E
:1056C0008C3023F01F027B689B6A013B3D491343EA
:1056D000C1F88C307B681B6803F48063002B29D0F1
:1056E0007B681B6DB3F1005F24D1364BD3F8843057
:1056F0001B0C03F0030301335B00BB61314BD3F898
:1057000084301B0F03F007037B617B685A687B685A
:105710009B689B011A437B68DB685B08013B1B04A9
:105720001A43BB691B061A437B691B0725491343B0
:10573000C1F884307B681B6803F40063002B16D02B
:105740007B685A687B689B689B011A437B68DB68AF
:105750005B08013B1B041A437B681B691B061A4349
:105760007B685B691B0717491343C1F88430164BEC
:1057700001221A60FCF718FA786208E0FCF714FAC4
:1057800002467B6AD31A022B01D903239FE00D4BFB
:105790001B6803F00063002BF0D0BB6A012B40F0C4
:1057A00095800A4B00221A60FCF7FEF978620FE040
:1057B000FCF7FAF902467B6AD31A022B08D90323B5
:1057C00085E000BF00380240680047427000474251
:1057D000414B1B6803F00053B3F1005FE8D07B68D6
:1057E0001B6803F00403002B03D07B681B6B002BAA
:1057F00009D07B681B6803F00803002B2BD07B6863
:105800005B6B002B27D1344BD3F888301B0C03F093
:10581000030301335B003B617B689A697B68DB694A
:105820009B011A433B695B08013B1B041A437B68DD
:105830005B6A1B0628491343C1F88830264BD3F80E
:105840008C3023F4F8527B68DB6A013B1B0222494F
:105850001343C1F88C307B681B6803F48073002B02
:105860001DD07B685B6DB3F1006F18D11A4BD3F874
:1058700088301B0E03F00F03FB607B689A697B681E
:10588000DB699B011A437B681B6A5B08013B1B04B5
:105890001A43FB681B0610491343C1F888300F4BAD
:1058A00001221A60FCF780F9786208E0FCF77CF9C5
:1058B00002467B6AD31A022B01D9032307E0064B69
:1058C0001B6803F00053B3F1005FEFD100231846CB
:1058D0003037BD4680BD00BF0038024070004742EF
:1058E0002DE9B04FAEB000AF0023C7F8AC300023B5
:1058F000C7F8B4300023C7F8A8300023C7F8A43095
:105900000023C7F8B030CB4B9B6803F00C030C2B83
:1059100000F2068201A252F823F000BF515900089C
:10592000215D0008215D0008215D0008595900082B
:10593000215D0008215D0008215D00086159000813
:10594000215D0008215D0008215D0008515B000811
:10595000B94BC7F8B030E7E1B84BC7F8B030E3E176
:10596000B44B5B6803F03F03C7F8AC30B14B5B68E6
:1059700003F48003002B71D0AE4B5B689B090022BF
:10598000C7F89830C7F89C20D7F89830C3F30803BD
:10599000C7F890300023C7F89430D7E92445224651
:1059A0002B464FF000004FF00001590141EAD2614F
:1059B000500102460B462146511A3964294663EBD1
:1059C00001037B644FF000024FF00003D7E9108918
:1059D00049468B01414643EA916341468A0141466B
:1059E000511AB963494663EB0103FB634FF00002B0
:1059F0004FF00003D7E90E894946CB00414643EA00
:105A000051734146CA0010461946034622469B1868
:105A10003B632B460A4642EB03037B634FF00002D5
:105A20004FF00003D7E90C4529464B02214643EAD3
:105A3000D15321464A0210461946D7F8AC3000220D
:105A4000C7F88830C7F88C20D7E92223FAF7E0FBA3
:105A500002460B461346C7F8B43067E0754B5B68E7
:105A60009B090022C7F88030C7F88420D7F880301F
:105A7000C3F30803BB670023FB67D7E91E45224633
:105A80002B464FF000004FF00001590141EAD2616E
:105A9000500102460B462146511AB962294663EB72
:105AA0000103FB624FF000024FF00003D7E90A89BF
:105AB00049468B01414643EA916341468A0141468A
:105AC000B2EB010A494663EB010B4FF000024FF0C5
:105AD00000034FEACB0343EA5A734FEACA029246E5
